{
  "contractName": "SolnSquareVerifier",
  "abi": [
    {
      "constant": true,
      "inputs": [
        {
          "name": "interfaceId",
          "type": "bytes4"
        }
      ],
      "name": "supportsInterface",
      "outputs": [
        {
          "name": "",
          "type": "bool"
        }
      ],
      "payable": false,
      "stateMutability": "view",
      "type": "function"
    },
    {
      "constant": true,
      "inputs": [],
      "name": "name",
      "outputs": [
        {
          "name": "",
          "type": "string"
        }
      ],
      "payable": false,
      "stateMutability": "view",
      "type": "function"
    },
    {
      "constant": true,
      "inputs": [
        {
          "name": "tokenId",
          "type": "uint256"
        }
      ],
      "name": "getApproved",
      "outputs": [
        {
          "name": "",
          "type": "address"
        }
      ],
      "payable": false,
      "stateMutability": "view",
      "type": "function"
    },
    {
      "constant": false,
      "inputs": [
        {
          "name": "to",
          "type": "address"
        },
        {
          "name": "tokenId",
          "type": "uint256"
        }
      ],
      "name": "approve",
      "outputs": [],
      "payable": false,
      "stateMutability": "nonpayable",
      "type": "function"
    },
    {
      "constant": true,
      "inputs": [],
      "name": "totalSupply",
      "outputs": [
        {
          "name": "",
          "type": "uint256"
        }
      ],
      "payable": false,
      "stateMutability": "view",
      "type": "function"
    },
    {
      "constant": false,
      "inputs": [
        {
          "name": "from",
          "type": "address"
        },
        {
          "name": "to",
          "type": "address"
        },
        {
          "name": "tokenId",
          "type": "uint256"
        }
      ],
      "name": "transferFrom",
      "outputs": [],
      "payable": false,
      "stateMutability": "nonpayable",
      "type": "function"
    },
    {
      "constant": false,
      "inputs": [
        {
          "name": "_myid",
          "type": "bytes32"
        },
        {
          "name": "_result",
          "type": "string"
        }
      ],
      "name": "__callback",
      "outputs": [],
      "payable": false,
      "stateMutability": "nonpayable",
      "type": "function"
    },
    {
      "constant": true,
      "inputs": [
        {
          "name": "owner",
          "type": "address"
        },
        {
          "name": "index",
          "type": "uint256"
        }
      ],
      "name": "tokenOfOwnerByIndex",
      "outputs": [
        {
          "name": "",
          "type": "uint256"
        }
      ],
      "payable": false,
      "stateMutability": "view",
      "type": "function"
    },
    {
      "constant": false,
      "inputs": [
        {
          "name": "_myid",
          "type": "bytes32"
        },
        {
          "name": "_result",
          "type": "string"
        },
        {
          "name": "_proof",
          "type": "bytes"
        }
      ],
      "name": "__callback",
      "outputs": [],
      "payable": false,
      "stateMutability": "nonpayable",
      "type": "function"
    },
    {
      "constant": false,
      "inputs": [],
      "name": "unpause",
      "outputs": [],
      "payable": false,
      "stateMutability": "nonpayable",
      "type": "function"
    },
    {
      "constant": false,
      "inputs": [
        {
          "name": "to",
          "type": "address"
        },
        {
          "name": "tokenId",
          "type": "uint256"
        }
      ],
      "name": "mint",
      "outputs": [
        {
          "name": "",
          "type": "bool"
        }
      ],
      "payable": false,
      "stateMutability": "nonpayable",
      "type": "function"
    },
    {
      "constant": false,
      "inputs": [
        {
          "name": "from",
          "type": "address"
        },
        {
          "name": "to",
          "type": "address"
        },
        {
          "name": "tokenId",
          "type": "uint256"
        }
      ],
      "name": "safeTransferFrom",
      "outputs": [],
      "payable": false,
      "stateMutability": "nonpayable",
      "type": "function"
    },
    {
      "constant": true,
      "inputs": [
        {
          "name": "index",
          "type": "uint256"
        }
      ],
      "name": "tokenByIndex",
      "outputs": [
        {
          "name": "",
          "type": "uint256"
        }
      ],
      "payable": false,
      "stateMutability": "view",
      "type": "function"
    },
    {
      "constant": true,
      "inputs": [
        {
          "name": "tokenId",
          "type": "uint256"
        }
      ],
      "name": "ownerOf",
      "outputs": [
        {
          "name": "",
          "type": "address"
        }
      ],
      "payable": false,
      "stateMutability": "view",
      "type": "function"
    },
    {
      "constant": true,
      "inputs": [
        {
          "name": "owner",
          "type": "address"
        }
      ],
      "name": "balanceOf",
      "outputs": [
        {
          "name": "",
          "type": "uint256"
        }
      ],
      "payable": false,
      "stateMutability": "view",
      "type": "function"
    },
    {
      "constant": false,
      "inputs": [],
      "name": "pause",
      "outputs": [],
      "payable": false,
      "stateMutability": "nonpayable",
      "type": "function"
    },
    {
      "constant": true,
      "inputs": [],
      "name": "getOwner",
      "outputs": [
        {
          "name": "",
          "type": "address"
        }
      ],
      "payable": false,
      "stateMutability": "view",
      "type": "function"
    },
    {
      "constant": true,
      "inputs": [],
      "name": "symbol",
      "outputs": [
        {
          "name": "",
          "type": "string"
        }
      ],
      "payable": false,
      "stateMutability": "view",
      "type": "function"
    },
    {
      "constant": false,
      "inputs": [
        {
          "name": "to",
          "type": "address"
        },
        {
          "name": "approved",
          "type": "bool"
        }
      ],
      "name": "setApprovalForAll",
      "outputs": [],
      "payable": false,
      "stateMutability": "nonpayable",
      "type": "function"
    },
    {
      "constant": false,
      "inputs": [
        {
          "name": "from",
          "type": "address"
        },
        {
          "name": "to",
          "type": "address"
        },
        {
          "name": "tokenId",
          "type": "uint256"
        },
        {
          "name": "_data",
          "type": "bytes"
        }
      ],
      "name": "safeTransferFrom",
      "outputs": [],
      "payable": false,
      "stateMutability": "nonpayable",
      "type": "function"
    },
    {
      "constant": true,
      "inputs": [
        {
          "name": "tokenId",
          "type": "uint256"
        }
      ],
      "name": "tokenURI",
      "outputs": [
        {
          "name": "",
          "type": "string"
        }
      ],
      "payable": false,
      "stateMutability": "view",
      "type": "function"
    },
    {
      "constant": true,
      "inputs": [],
      "name": "baseTokenURI",
      "outputs": [
        {
          "name": "",
          "type": "string"
        }
      ],
      "payable": false,
      "stateMutability": "view",
      "type": "function"
    },
    {
      "constant": true,
      "inputs": [
        {
          "name": "owner",
          "type": "address"
        },
        {
          "name": "operator",
          "type": "address"
        }
      ],
      "name": "isApprovedForAll",
      "outputs": [
        {
          "name": "",
          "type": "bool"
        }
      ],
      "payable": false,
      "stateMutability": "view",
      "type": "function"
    },
    {
      "constant": false,
      "inputs": [
        {
          "name": "newOwner",
          "type": "address"
        }
      ],
      "name": "transferOwnership",
      "outputs": [],
      "payable": false,
      "stateMutability": "nonpayable",
      "type": "function"
    },
    {
      "inputs": [
        {
          "name": "verifierAddress",
          "type": "address"
        },
        {
          "name": "name",
          "type": "string"
        },
        {
          "name": "symbol",
          "type": "string"
        },
        {
          "name": "baseTokenURI",
          "type": "string"
        }
      ],
      "payable": false,
      "stateMutability": "nonpayable",
      "type": "constructor"
    },
    {
      "anonymous": false,
      "inputs": [
        {
          "indexed": false,
          "name": "index",
          "type": "uint256"
        },
        {
          "indexed": true,
          "name": "solutionAddress",
          "type": "address"
        }
      ],
      "name": "SolutionAdded",
      "type": "event"
    },
    {
      "anonymous": false,
      "inputs": [
        {
          "indexed": false,
          "name": "to",
          "type": "address"
        },
        {
          "indexed": false,
          "name": "tokenId",
          "type": "uint256"
        }
      ],
      "name": "TokenMinted",
      "type": "event"
    },
    {
      "anonymous": false,
      "inputs": [
        {
          "indexed": true,
          "name": "from",
          "type": "address"
        },
        {
          "indexed": true,
          "name": "to",
          "type": "address"
        },
        {
          "indexed": true,
          "name": "tokenId",
          "type": "uint256"
        }
      ],
      "name": "Transfer",
      "type": "event"
    },
    {
      "anonymous": false,
      "inputs": [
        {
          "indexed": true,
          "name": "owner",
          "type": "address"
        },
        {
          "indexed": true,
          "name": "approved",
          "type": "address"
        },
        {
          "indexed": true,
          "name": "tokenId",
          "type": "uint256"
        }
      ],
      "name": "Approval",
      "type": "event"
    },
    {
      "anonymous": false,
      "inputs": [
        {
          "indexed": true,
          "name": "owner",
          "type": "address"
        },
        {
          "indexed": true,
          "name": "operator",
          "type": "address"
        },
        {
          "indexed": false,
          "name": "approved",
          "type": "bool"
        }
      ],
      "name": "ApprovalForAll",
      "type": "event"
    },
    {
      "anonymous": false,
      "inputs": [
        {
          "indexed": true,
          "name": "actor",
          "type": "address"
        }
      ],
      "name": "Paused",
      "type": "event"
    },
    {
      "anonymous": false,
      "inputs": [
        {
          "indexed": true,
          "name": "actor",
          "type": "address"
        }
      ],
      "name": "Unpaused",
      "type": "event"
    },
    {
      "anonymous": false,
      "inputs": [
        {
          "indexed": true,
          "name": "oldOwner",
          "type": "address"
        },
        {
          "indexed": true,
          "name": "newOwner",
          "type": "address"
        }
      ],
      "name": "OwnershipTransferred",
      "type": "event"
    },
    {
      "constant": false,
      "inputs": [
        {
          "components": [
            {
              "components": [
                {
                  "name": "X",
                  "type": "uint256"
                },
                {
                  "name": "Y",
                  "type": "uint256"
                }
              ],
              "name": "a",
              "type": "tuple"
            },
            {
              "components": [
                {
                  "name": "X",
                  "type": "uint256[2]"
                },
                {
                  "name": "Y",
                  "type": "uint256[2]"
                }
              ],
              "name": "b",
              "type": "tuple"
            },
            {
              "components": [
                {
                  "name": "X",
                  "type": "uint256"
                },
                {
                  "name": "Y",
                  "type": "uint256"
                }
              ],
              "name": "c",
              "type": "tuple"
            }
          ],
          "name": "proof",
          "type": "tuple"
        },
        {
          "name": "inputs",
          "type": "uint256[2]"
        },
        {
          "name": "to",
          "type": "address"
        }
      ],
      "name": "addSolution",
      "outputs": [],
      "payable": false,
      "stateMutability": "nonpayable",
      "type": "function"
    },
    {
      "constant": false,
      "inputs": [
        {
          "components": [
            {
              "components": [
                {
                  "name": "X",
                  "type": "uint256"
                },
                {
                  "name": "Y",
                  "type": "uint256"
                }
              ],
              "name": "a",
              "type": "tuple"
            },
            {
              "components": [
                {
                  "name": "X",
                  "type": "uint256[2]"
                },
                {
                  "name": "Y",
                  "type": "uint256[2]"
                }
              ],
              "name": "b",
              "type": "tuple"
            },
            {
              "components": [
                {
                  "name": "X",
                  "type": "uint256"
                },
                {
                  "name": "Y",
                  "type": "uint256"
                }
              ],
              "name": "c",
              "type": "tuple"
            }
          ],
          "name": "proof",
          "type": "tuple"
        },
        {
          "name": "inputs",
          "type": "uint256[2]"
        },
        {
          "name": "to",
          "type": "address"
        },
        {
          "name": "tokenId",
          "type": "uint256"
        }
      ],
      "name": "mintToken",
      "outputs": [],
      "payable": false,
      "stateMutability": "nonpayable",
      "type": "function"
    }
  ],
  "bytecode": "0x60806040523480156200001157600080fd5b5060405162003e4738038062003e478339810180604052620000379190810190620003b3565b828282828282336000806101000a81548173ffffffffffffffffffffffffffffffffffffffff021916908373ffffffffffffffffffffffffffffffffffffffff1602179055503373ffffffffffffffffffffffffffffffffffffffff16600073ffffffffffffffffffffffffffffffffffffffff167f8be0079c531659141344cd1fd0a4f28419497f9722a3daafe3b4186f6b6457e060405160405180910390a360008060146101000a81548160ff0219169083151502179055506200010a6301ffc9a760e01b620001ee60201b60201c565b620001226380ac58cd60e01b620001ee60201b60201c565b6200013a63780e9d6360e01b620001ee60201b60201c565b82600f90805190602001906200015292919062000290565b5081601090805190602001906200016b92919062000290565b5080601190805190602001906200018492919062000290565b506200019d635b5e139f60e01b620001ee60201b60201c565b50505050505083601360006101000a81548173ffffffffffffffffffffffffffffffffffffffff021916908373ffffffffffffffffffffffffffffffffffffffff160217905550505050506200052f565b63ffffffff60e01b817bffffffffffffffffffffffffffffffffffffffffffffffffffffffff1916141515156200022457600080fd5b6001806000837bffffffffffffffffffffffffffffffffffffffffffffffffffffffff19167bffffffffffffffffffffffffffffffffffffffffffffffffffffffff1916815260200190815260200160002060006101000a81548160ff02191690831515021790555050565b828054600181600116156101000203166002900490600052602060002090601f016020900481019282601f10620002d357805160ff191683800117855562000304565b8280016001018555821562000304579182015b8281111562000303578251825591602001919060010190620002e6565b5b50905062000313919062000317565b5090565b6200033c91905b80821115620003385760008160009055506001016200031e565b5090565b90565b60006200034d8251620004c5565b905092915050565b600082601f83011215156200036957600080fd5b8151620003806200037a8262000498565b6200046a565b915080825260208301602083018583830111156200039d57600080fd5b620003aa838284620004f9565b50505092915050565b60008060008060808587031215620003ca57600080fd5b6000620003da878288016200033f565b945050602085015167ffffffffffffffff811115620003f857600080fd5b620004068782880162000355565b935050604085015167ffffffffffffffff8111156200042457600080fd5b620004328782880162000355565b925050606085015167ffffffffffffffff8111156200045057600080fd5b6200045e8782880162000355565b91505092959194509250565b6000604051905081810181811067ffffffffffffffff821117156200048e57600080fd5b8060405250919050565b600067ffffffffffffffff821115620004b057600080fd5b601f19601f8301169050602081019050919050565b6000620004d282620004d9565b9050919050565b600073ffffffffffffffffffffffffffffffffffffffff82169050919050565b60005b8381101562000519578082015181840152602081019050620004fc565b8381111562000529576000848401525b50505050565b613908806200053f6000396000f3fe608060405234801561001057600080fd5b506004361061018e5760003560e01c80636352211e116100de578063b88d4fde11610097578063d547cfb711610071578063d547cfb71461047f578063d915ffcb1461049d578063e985e9c5146104b9578063f2fde38b146104e95761018e565b8063b88d4fde14610417578063c87b56dd14610433578063d483ce10146104635761018e565b80636352211e1461035557806370a08231146103855780638456cb59146103b5578063893d20e8146103bf57806395d89b41146103dd578063a22cb465146103fb5761018e565b806327dc297e1161014b5780633f4ba83a116101255780633f4ba83a146102cf57806340c10f19146102d957806342842e0e146103095780634f6ccce7146103255761018e565b806327dc297e146102675780632f745c591461028357806338bbfa50146102b35761018e565b806301ffc9a71461019357806306fdde03146101c3578063081812fc146101e1578063095ea7b31461021157806318160ddd1461022d57806323b872dd1461024b575b600080fd5b6101ad60048036036101a89190810190612d68565b610505565b6040516101ba9190613457565b60405180910390f35b6101cb61056d565b6040516101d89190613472565b60405180910390f35b6101fb60048036036101f69190810190612e73565b61060f565b60405161020891906133c7565b60405180910390f35b61022b60048036036102269190810190612c30565b61064c565b005b6102356107fd565b60405161024291906135ff565b60405180910390f35b61026560048036036102609190810190612b2a565b61080a565b005b610281600480360361027c9190810190612c95565b61082f565b005b61029d60048036036102989190810190612c30565b610872565b6040516102aa91906135ff565b60405180910390f35b6102cd60048036036102c89190810190612ce9565b6108e9565b005b6102d76108ee565b005b6102f360048036036102ee9190810190612c30565b6109de565b6040516103009190613457565b60405180910390f35b610323600480360361031e9190810190612b2a565b610ae6565b005b61033f600480360361033a9190810190612e73565b610b06565b60405161034c91906135ff565b60405180910390f35b61036f600480360361036a9190810190612e73565b610b3e565b60405161037c91906133c7565b60405180910390f35b61039f600480360361039a9190810190612ac5565b610b7b565b6040516103ac91906135ff565b60405180910390f35b6103bd610bcb565b005b6103c7610cbc565b6040516103d491906133c7565b60405180910390f35b6103e5610ce5565b6040516103f29190613472565b60405180910390f35b61041560048036036104109190810190612bf4565b610d87565b005b610431600480360361042c9190810190612b79565b610ebf565b005b61044d60048036036104489190810190612e73565b610ee7565b60405161045a9190613472565b60405180910390f35b61047d60048036036104789190810190612dba565b610fb0565b005b6104876112fa565b6040516104949190613472565b60405180910390f35b6104b760048036036104b29190810190612e0c565b61139c565b005b6104d360048036036104ce9190810190612aee565b6113f1565b6040516104e09190613457565b60405180910390f35b61050360048036036104fe9190810190612ac5565b611485565b005b600060016000837bffffffffffffffffffffffffffffffffffffffffffffffffffffffff19167bffffffffffffffffffffffffffffffffffffffffffffffffffffffff1916815260200190815260200160002060009054906101000a900460ff169050919050565b6060600f8054600181600116156101000203166002900480601f0160208091040260200160405190810160405280929190818152602001828054600181600116156101000203166002900480156106055780601f106105da57610100808354040283529160200191610605565b820191906000526020600020905b8154815290600101906020018083116105e857829003601f168201915b5050505050905090565b60006003600083815260200190815260200160002060009054906101000a900473ffffffffffffffffffffffffffffffffffffffff169050919050565b600061065782610b3e565b90508073ffffffffffffffffffffffffffffffffffffffff168373ffffffffffffffffffffffffffffffffffffffff16141515156106ca576040517f08c379a00000000000000000000000000000000000000000000000000000000081526004016106c190613534565b60405180910390fd5b8073ffffffffffffffffffffffffffffffffffffffff163373ffffffffffffffffffffffffffffffffffffffff16148061070a575061070981336113f1565b5b151561074b576040517f08c379a0000000000000000000000000000000000000000000000000000000008152600401610742906135b4565b60405180910390fd5b826003600084815260200190815260200160002060006101000a81548173ffffffffffffffffffffffffffffffffffffffff021916908373ffffffffffffffffffffffffffffffffffffffff160217905550818373ffffffffffffffffffffffffffffffffffffffff168273ffffffffffffffffffffffffffffffffffffffff167f8c5be1e5ebec7d5bd14f71427d1e84f3dd0314c0f7b2291e5b200ac8c7c3b92560405160405180910390a4505050565b6000600880549050905090565b6108143382611625565b151561081f57600080fd5b61082a8383836116ba565b505050565b61086e828260006040519080825280601f01601f1916602001820160405280156108685781602001600182028038833980820191505090505b506108e9565b5050565b600061087d83610b7b565b8210151561088a57600080fd5b600660008473ffffffffffffffffffffffffffffffffffffffff1673ffffffffffffffffffffffffffffffffffffffff168152602001908152602001600020828154811015156108d657fe5b9060005260206000200154905092915050565b505050565b6000809054906101000a900473ffffffffffffffffffffffffffffffffffffffff1673ffffffffffffffffffffffffffffffffffffffff163373ffffffffffffffffffffffffffffffffffffffff1614151561097f576040517f08c379a000000000000000000000000000000000000000000000000000000000815260040161097690613514565b60405180910390fd5b60008060146101000a81548160ff0219169083151502179055503373ffffffffffffffffffffffffffffffffffffffff167f5db9ee0a495bf2e6ff9c91a7834c1ba4fdd244a5e8aa4e537bd38aeae4b073aa60405160405180910390a2565b60008060009054906101000a900473ffffffffffffffffffffffffffffffffffffffff1673ffffffffffffffffffffffffffffffffffffffff163373ffffffffffffffffffffffffffffffffffffffff16141515610a71576040517f08c379a0000000000000000000000000000000000000000000000000000000008152600401610a6890613514565b60405180910390fd5b60001515600060149054906101000a900460ff161515141515610ac9576040517f08c379a0000000000000000000000000000000000000000000000000000000008152600401610ac090613594565b60405180910390fd5b610ad383836116de565b610adc826116ff565b6001905092915050565b610b0183838360405180602001604052806000815250610ebf565b505050565b6000610b106107fd565b82101515610b1d57600080fd5b600882815481101515610b2c57fe5b90600052602060002001549050919050565b60006002600083815260200190815260200160002060009054906101000a900473ffffffffffffffffffffffffffffffffffffffff169050919050565b6000610bc4600460008473ffffffffffffffffffffffffffffffffffffffff1673ffffffffffffffffffffffffffffffffffffffff16815260200190815260200160002061181f565b9050919050565b6000809054906101000a900473ffffffffffffffffffffffffffffffffffffffff1673ffffffffffffffffffffffffffffffffffffffff163373ffffffffffffffffffffffffffffffffffffffff16141515610c5c576040517f08c379a0000000000000000000000000000000000000000000000000000000008152600401610c5390613514565b60405180910390fd5b6001600060146101000a81548160ff0219169083151502179055503373ffffffffffffffffffffffffffffffffffffffff167f62e78cea01bee320cd4e420270b5ea74000d11b0c9f74754ebdbfc544b05a25860405160405180910390a2565b60008060009054906101000a900473ffffffffffffffffffffffffffffffffffffffff16905090565b606060108054600181600116156101000203166002900480601f016020809104026020016040519081016040528092919081815260200182805460018160011615610100020316600290048015610d7d5780601f10610d5257610100808354040283529160200191610d7d565b820191906000526020600020905b815481529060010190602001808311610d6057829003601f168201915b5050505050905090565b3373ffffffffffffffffffffffffffffffffffffffff168273ffffffffffffffffffffffffffffffffffffffff1614151515610dc257600080fd5b80600560003373ffffffffffffffffffffffffffffffffffffffff1673ffffffffffffffffffffffffffffffffffffffff16815260200190815260200160002060008473ffffffffffffffffffffffffffffffffffffffff1673ffffffffffffffffffffffffffffffffffffffff16815260200190815260200160002060006101000a81548160ff0219169083151502179055508173ffffffffffffffffffffffffffffffffffffffff163373ffffffffffffffffffffffffffffffffffffffff167f17307eab39ab6107e8899845ad3d59bd9653f200f220920489ca2b5937696c3183604051610eb39190613457565b60405180910390a35050565b610eca84848461080a565b610ed68484848461182d565b1515610ee157600080fd5b50505050565b6060610ef282611946565b1515610efd57600080fd5b601260008381526020019081526020016000208054600181600116156101000203166002900480601f016020809104026020016040519081016040528092919081815260200182805460018160011615610100020316600290048015610fa45780601f10610f7957610100808354040283529160200191610fa4565b820191906000526020600020905b815481529060010190602001808311610f8757829003601f168201915b50505050509050919050565b816000816000600281101515610fc257fe5b6020020151826001600281101515610fd657fe5b6020020151604051602001610fec92919061339b565b604051602081830303815290604052805190602001209050600073ffffffffffffffffffffffffffffffffffffffff166014600083815260200190815260200160002060010160009054906101000a900473ffffffffffffffffffffffffffffffffffffffff1673ffffffffffffffffffffffffffffffffffffffff161415156110ab576040517f08c379a00000000000000000000000000000000000000000000000000000000081526004016110a2906134d4565b60405180910390fd5b8484601360009054906101000a900473ffffffffffffffffffffffffffffffffffffffff1673ffffffffffffffffffffffffffffffffffffffff166343cd76fc83836040518363ffffffff1660e01b815260040161110a9291906135d4565b60206040518083038186803b15801561112257600080fd5b505afa158015611136573d6000803e3d6000fd5b505050506040513d601f19601f8201168201806040525061115a9190810190612c6c565b151561119b576040517f08c379a000000000000000000000000000000000000000000000000000000000815260040161119290613554565b60405180910390fd5b60008660006002811015156111ac57fe5b60200201518760016002811015156111c057fe5b60200201516040516020016111d692919061339b565b6040516020818303038152906040528051906020012090506111f66126a7565b604051806040016040528060155481526020018873ffffffffffffffffffffffffffffffffffffffff16815250905080601460008481526020019081526020016000206000820151816000015560208201518160010160006101000a81548173ffffffffffffffffffffffffffffffffffffffff021916908373ffffffffffffffffffffffffffffffffffffffff160217905550905050600160155401601581905550806020015173ffffffffffffffffffffffffffffffffffffffff167f078793128cefb19aac38a33f9e5df39f67716907f6d747e8065545699e0b2b8d82600001516040516112e791906135ff565b60405180910390a2505050505050505050565b606060118054600181600116156101000203166002900480601f0160208091040260200160405190810160405280929190818152602001828054600181600116156101000203166002900480156113925780601f1061136757610100808354040283529160200191611392565b820191906000526020600020905b81548152906001019060200180831161137557829003601f168201915b5050505050905090565b6113a7848484610fb0565b6113b182826109de565b507fb9144c96c86541f6fa89c9f2f02495cccf4b08cd6643e26d34ee00aa586558a882826040516113e392919061342e565b60405180910390a150505050565b6000600560008473ffffffffffffffffffffffffffffffffffffffff1673ffffffffffffffffffffffffffffffffffffffff16815260200190815260200160002060008373ffffffffffffffffffffffffffffffffffffffff1673ffffffffffffffffffffffffffffffffffffffff16815260200190815260200160002060009054906101000a900460ff16905092915050565b6000809054906101000a900473ffffffffffffffffffffffffffffffffffffffff1673ffffffffffffffffffffffffffffffffffffffff163373ffffffffffffffffffffffffffffffffffffffff16141515611516576040517f08c379a000000000000000000000000000000000000000000000000000000000815260040161150d90613514565b60405180910390fd5b600073ffffffffffffffffffffffffffffffffffffffff168173ffffffffffffffffffffffffffffffffffffffff1614151515611588576040517f08c379a000000000000000000000000000000000000000000000000000000000815260040161157f90613494565b60405180910390fd5b806000806101000a81548173ffffffffffffffffffffffffffffffffffffffff021916908373ffffffffffffffffffffffffffffffffffffffff1602179055508073ffffffffffffffffffffffffffffffffffffffff163373ffffffffffffffffffffffffffffffffffffffff167f8be0079c531659141344cd1fd0a4f28419497f9722a3daafe3b4186f6b6457e060405160405180910390a350565b60008061163183610b3e565b90508073ffffffffffffffffffffffffffffffffffffffff168473ffffffffffffffffffffffffffffffffffffffff1614806116a057508373ffffffffffffffffffffffffffffffffffffffff166116888461060f565b73ffffffffffffffffffffffffffffffffffffffff16145b806116b157506116b081856113f1565b5b91505092915050565b6116c58383836119b8565b6116cf8382611beb565b6116d98282611d8f565b505050565b6116e88282611e56565b6116f28282611d8f565b6116fb81612012565b5050565b61170881611946565b1515611749576040517f08c379a0000000000000000000000000000000000000000000000000000000008152600401611740906134f4565b60405180910390fd5b6117f560118054600181600116156101000203166002900480601f0160208091040260200160405190810160405280929190818152602001828054600181600116156101000203166002900480156117e25780601f106117b7576101008083540402835291602001916117e2565b820191906000526020600020905b8154815290600101906020018083116117c557829003601f168201915b50505050506117f08361205e565b612198565b60126000838152602001908152602001600020908051906020019061181b9291906126d7565b5050565b600081600001549050919050565b600061184e8473ffffffffffffffffffffffffffffffffffffffff166121dc565b151561185d576001905061193e565b60008473ffffffffffffffffffffffffffffffffffffffff1663150b7a02338887876040518563ffffffff1660e01b815260040161189e94939291906133e2565b602060405180830381600087803b1580156118b857600080fd5b505af11580156118cc573d6000803e3d6000fd5b505050506040513d601f19601f820116820180604052506118f09190810190612d91565b905063150b7a0260e01b7bffffffffffffffffffffffffffffffffffffffffffffffffffffffff1916817bffffffffffffffffffffffffffffffffffffffffffffffffffffffff1916149150505b949350505050565b6000806002600084815260200190815260200160002060009054906101000a900473ffffffffffffffffffffffffffffffffffffffff169050600073ffffffffffffffffffffffffffffffffffffffff168173ffffffffffffffffffffffffffffffffffffffff161415915050919050565b8273ffffffffffffffffffffffffffffffffffffffff166119d882610b3e565b73ffffffffffffffffffffffffffffffffffffffff16141515611a30576040517f08c379a0000000000000000000000000000000000000000000000000000000008152600401611a2790613574565b60405180910390fd5b600073ffffffffffffffffffffffffffffffffffffffff168273ffffffffffffffffffffffffffffffffffffffff1614151515611aa2576040517f08c379a0000000000000000000000000000000000000000000000000000000008152600401611a9990613494565b60405180910390fd5b611aab81612227565b611af2600460008573ffffffffffffffffffffffffffffffffffffffff1673ffffffffffffffffffffffffffffffffffffffff1681526020019081526020016000206122e7565b611b39600460008473ffffffffffffffffffffffffffffffffffffffff1673ffffffffffffffffffffffffffffffffffffffff16815260200190815260200160002061230a565b816002600083815260200190815260200160002060006101000a81548173ffffffffffffffffffffffffffffffffffffffff021916908373ffffffffffffffffffffffffffffffffffffffff160217905550808273ffffffffffffffffffffffffffffffffffffffff168473ffffffffffffffffffffffffffffffffffffffff167fddf252ad1be2c89b69c2b068fc378daa952ba7f163c4a11628f55a4df523b3ef60405160405180910390a4505050565b6000611c436001600660008673ffffffffffffffffffffffffffffffffffffffff1673ffffffffffffffffffffffffffffffffffffffff1681526020019081526020016000208054905061232090919063ffffffff16565b90506000600760008481526020019081526020016000205490508181141515611d36576000600660008673ffffffffffffffffffffffffffffffffffffffff1673ffffffffffffffffffffffffffffffffffffffff16815260200190815260200160002083815481101515611cb457fe5b9060005260206000200154905080600660008773ffffffffffffffffffffffffffffffffffffffff1673ffffffffffffffffffffffffffffffffffffffff16815260200190815260200160002083815481101515611d0e57fe5b9060005260206000200181905550816007600083815260200190815260200160002081905550505b600660008573ffffffffffffffffffffffffffffffffffffffff1673ffffffffffffffffffffffffffffffffffffffff168152602001908152602001600020805480919060019003611d889190612757565b5050505050565b600660008373ffffffffffffffffffffffffffffffffffffffff1673ffffffffffffffffffffffffffffffffffffffff168152602001908152602001600020805490506007600083815260200190815260200160002081905550600660008373ffffffffffffffffffffffffffffffffffffffff1673ffffffffffffffffffffffffffffffffffffffff1681526020019081526020016000208190806001815401808255809150509060018203906000526020600020016000909192909190915055505050565b60001515611e6382611946565b1515141515611ea7576040517f08c379a0000000000000000000000000000000000000000000000000000000008152600401611e9e906134b4565b60405180910390fd5b600073ffffffffffffffffffffffffffffffffffffffff168273ffffffffffffffffffffffffffffffffffffffff1614151515611f19576040517f08c379a0000000000000000000000000000000000000000000000000000000008152600401611f1090613494565b60405180910390fd5b816002600083815260200190815260200160002060006101000a81548173ffffffffffffffffffffffffffffffffffffffff021916908373ffffffffffffffffffffffffffffffffffffffff160217905550611fb2600460008473ffffffffffffffffffffffffffffffffffffffff1673ffffffffffffffffffffffffffffffffffffffff16815260200190815260200160002061230a565b808273ffffffffffffffffffffffffffffffffffffffff16600073ffffffffffffffffffffffffffffffffffffffff167fddf252ad1be2c89b69c2b068fc378daa952ba7f163c4a11628f55a4df523b3ef60405160405180910390a45050565b6008805490506009600083815260200190815260200160002081905550600881908060018154018082558091505090600182039060005260206000200160009091929091909150555050565b606060008214156120a6576040518060400160405280600181526020017f30000000000000000000000000000000000000000000000000000000000000008152509050612193565b600082905060005b6000821415156120d4578080600101915050600a828115156120cc57fe5b0491506120ae565b6060816040519080825280601f01601f1916602001820160405280156121095781602001600182028038833980820191505090505b50905060006001830390505b60008614151561218b57600a8681151561212b57fe5b0660300160f81b82828060019003935081518110151561214757fe5b9060200101907effffffffffffffffffffffffffffffffffffffffffffffffffffffffffffff1916908160001a905350600a8681151561218357fe5b049550612115565b819450505050505b919050565b60606121d4838360405180602001604052806000815250604051806020016040528060008152506040518060200160405280600081525061236a565b905092915050565b60008060007fc5d2460186f7233c927e7db2dcc703c0e500b653ca82273b7bfad8045d85a47060001b9050833f915080821415801561221e57506000801b8214155b92505050919050565b600073ffffffffffffffffffffffffffffffffffffffff166003600083815260200190815260200160002060009054906101000a900473ffffffffffffffffffffffffffffffffffffffff1673ffffffffffffffffffffffffffffffffffffffff161415156122e45760006003600083815260200190815260200160002060006101000a81548173ffffffffffffffffffffffffffffffffffffffff021916908373ffffffffffffffffffffffffffffffffffffffff1602179055505b50565b6122ff6001826000015461232090919063ffffffff16565b816000018190555050565b6001816000016000828254019250508190555050565b600061236283836040518060400160405280601e81526020017f536166654d6174683a207375627472616374696f6e206f766572666c6f77000081525061264a565b905092915050565b6060808690506060869050606086905060608690506060869050606081518351855187518951010101016040519080825280601f01601f1916602001820160405280156123c65781602001600182028038833980820191505090505b509050606081905060008090506000809050600090505b88518110156124515788818151811015156123f457fe5b90602001015160f81c60f81b838380600101945081518110151561241457fe5b9060200101907effffffffffffffffffffffffffffffffffffffffffffffffffffffffffffff1916908160001a90535080806001019150506123dd565b600090505b87518110156124ca57878181518110151561246d57fe5b90602001015160f81c60f81b838380600101945081518110151561248d57fe5b9060200101907effffffffffffffffffffffffffffffffffffffffffffffffffffffffffffff1916908160001a9053508080600101915050612456565b600090505b86518110156125435786818151811015156124e657fe5b90602001015160f81c60f81b838380600101945081518110151561250657fe5b9060200101907effffffffffffffffffffffffffffffffffffffffffffffffffffffffffffff1916908160001a90535080806001019150506124cf565b600090505b85518110156125bc57858181518110151561255f57fe5b90602001015160f81c60f81b838380600101945081518110151561257f57fe5b9060200101907effffffffffffffffffffffffffffffffffffffffffffffffffffffffffffff1916908160001a9053508080600101915050612548565b600090505b84518110156126355784818151811015156125d857fe5b90602001015160f81c60f81b83838060010194508151811015156125f857fe5b9060200101907effffffffffffffffffffffffffffffffffffffffffffffffffffffffffffff1916908160001a90535080806001019150506125c1565b82995050505050505050505095945050505050565b60008383111582901515612694576040517f08c379a000000000000000000000000000000000000000000000000000000000815260040161268b9190613472565b60405180910390fd5b5060008385039050809150509392505050565b604051806040016040528060008152602001600073ffffffffffffffffffffffffffffffffffffffff1681525090565b828054600181600116156101000203166002900490600052602060002090601f016020900481019282601f1061271857805160ff1916838001178555612746565b82800160010185558215612746579182015b8281111561274557825182559160200191906001019061272a565b5b5090506127539190612783565b5090565b81548183558181111561277e5781836000526020600020918201910161277d9190612783565b5b505050565b6127a591905b808211156127a1576000816000905550600101612789565b5090565b90565b60006127b482356137bd565b905092915050565b600082601f83011215156127cf57600080fd5b60026127e26127dd82613647565b61361a565b915081838560208402820111156127f857600080fd5b60005b83811015612828578161280e8882612ab1565b8452602084019350602083019250506001810190506127fb565b5050505092915050565b600082601f830112151561284557600080fd5b600261285861285382613669565b61361a565b9150818385602084028201111561286e57600080fd5b60005b8381101561289e57816128848882612ab1565b845260208401935060208301925050600181019050612871565b5050505092915050565b60006128b482356137cf565b905092915050565b60006128c882516137cf565b905092915050565b60006128dc82356137db565b905092915050565b60006128f082356137e5565b905092915050565b600061290482516137e5565b905092915050565b600082601f830112151561291f57600080fd5b813561293261292d8261368b565b61361a565b9150808252602083016020830185838301111561294e57600080fd5b612959838284613871565b50505092915050565b600082601f830112151561297557600080fd5b8135612988612983826136b7565b61361a565b915080825260208301602083018583830111156129a457600080fd5b6129af838284613871565b50505092915050565b6000604082840312156129ca57600080fd5b6129d4604061361a565b905060006129e484828501612ab1565b60008301525060206129f884828501612ab1565b60208301525092915050565b600060808284031215612a1657600080fd5b612a20604061361a565b90506000612a30848285016127bc565b6000830152506040612a44848285016127bc565b60208301525092915050565b60006101008284031215612a6357600080fd5b612a6d606061361a565b90506000612a7d848285016129b8565b6000830152506040612a9184828501612a04565b60208301525060c0612aa5848285016129b8565b60408301525092915050565b6000612abd8235613831565b905092915050565b600060208284031215612ad757600080fd5b6000612ae5848285016127a8565b91505092915050565b60008060408385031215612b0157600080fd5b6000612b0f858286016127a8565b9250506020612b20858286016127a8565b9150509250929050565b600080600060608486031215612b3f57600080fd5b6000612b4d868287016127a8565b9350506020612b5e868287016127a8565b9250506040612b6f86828701612ab1565b9150509250925092565b60008060008060808587031215612b8f57600080fd5b6000612b9d878288016127a8565b9450506020612bae878288016127a8565b9350506040612bbf87828801612ab1565b925050606085013567ffffffffffffffff811115612bdc57600080fd5b612be88782880161290c565b91505092959194509250565b60008060408385031215612c0757600080fd5b6000612c15858286016127a8565b9250506020612c26858286016128a8565b9150509250929050565b60008060408385031215612c4357600080fd5b6000612c51858286016127a8565b9250506020612c6285828601612ab1565b9150509250929050565b600060208284031215612c7e57600080fd5b6000612c8c848285016128bc565b91505092915050565b60008060408385031215612ca857600080fd5b6000612cb6858286016128d0565b925050602083013567ffffffffffffffff811115612cd357600080fd5b612cdf85828601612962565b9150509250929050565b600080600060608486031215612cfe57600080fd5b6000612d0c868287016128d0565b935050602084013567ffffffffffffffff811115612d2957600080fd5b612d3586828701612962565b925050604084013567ffffffffffffffff811115612d5257600080fd5b612d5e8682870161290c565b9150509250925092565b600060208284031215612d7a57600080fd5b6000612d88848285016128e4565b91505092915050565b600060208284031215612da357600080fd5b6000612db1848285016128f8565b91505092915050565b60008060006101608486031215612dd057600080fd5b6000612dde86828701612a50565b935050610100612df086828701612832565b925050610140612e02868287016127a8565b9150509250925092565b6000806000806101808587031215612e2357600080fd5b6000612e3187828801612a50565b945050610100612e4387828801612832565b935050610140612e55878288016127a8565b925050610160612e6787828801612ab1565b91505092959194509250565b600060208284031215612e8557600080fd5b6000612e9384828501612ab1565b91505092915050565b6000612ea88383613366565b60208301905092915050565b612ebd8161383b565b82525050565b612ecc81613775565b82525050565b612edb81613702565b612ee58184613748565b9250612ef0826136ed565b60005b82811015612f1e57612f06858351612e9c565b9450612f1182613730565b9150600181019050612ef3565b5050505050565b612f2e816136f7565b612f38818461373d565b9250612f43826136e3565b60005b82811015612f7157612f59858351612e9c565b9450612f6482613723565b9150600181019050612f46565b5050505050565b612f8181613787565b82525050565b6000612f928261370d565b612f9c8185613753565b9350612fac818560208601613880565b612fb5816138bd565b840191505092915050565b6000612fcb82613718565b612fd58185613764565b9350612fe5818560208601613880565b612fee816138bd565b840191505092915050565b6000613006600f83613764565b91507f496e76616c6964206164647265737300000000000000000000000000000000006000830152602082019050919050565b6000613046601383613764565b91507f546f6b656e20616c7265616479206578697374000000000000000000000000006000830152602082019050919050565b6000613086601583613764565b91507f536f6c7574696f6e20616c7265616479207573656400000000000000000000006000830152602082019050919050565b60006130c6601483613764565b91507f546f6b656e20646f6573206e6f742065786973740000000000000000000000006000830152602082019050919050565b6000613106602083613764565b91507f43616c6c6572206973206e6f742074686520636f6e7472616374206f776e65726000830152602082019050919050565b6000613146601c83613764565b91507f4f776e65722063616e6e6f7420617070726f76652068696d73656c66000000006000830152602082019050919050565b6000613186601a83613764565b91507f536f6c7574696f6e20766572696669636174696f6e206661696c0000000000006000830152602082019050919050565b60006131c6602a83613764565b91507f66726f6d2061646472657373206973206e6f7420746865206f776e6572206f6660008301527f2074686520746f6b656e000000000000000000000000000000000000000000006020830152604082019050919050565b600061322c601283613764565b91507f436f6e74726163742069732070617573656400000000000000000000000000006000830152602082019050919050565b600061326c602383613764565b91507f43616c6c6572206973206e6f7420617574686f72697a656420746f206170707260008301527f6f766500000000000000000000000000000000000000000000000000000000006020830152604082019050919050565b6040820160008201516132db6000850182613366565b5060208201516132ee6020850182613366565b50505050565b60808201600082015161330a6000850182612f25565b50602082015161331d6040850182612f25565b50505050565b6101008201600082015161333a60008501826132c5565b50602082015161334d60408501826132f4565b50604082015161336060c08501826132c5565b50505050565b61336f816137b3565b82525050565b61337e816137b3565b82525050565b613395613390826137b3565b6138b3565b82525050565b60006133a78285613384565b6020820191506133b78284613384565b6020820191508190509392505050565b60006020820190506133dc6000830184612ec3565b92915050565b60006080820190506133f76000830187612eb4565b6134046020830186612ec3565b6134116040830185613375565b81810360608301526134238184612f87565b905095945050505050565b60006040820190506134436000830185612ec3565b6134506020830184613375565b9392505050565b600060208201905061346c6000830184612f78565b92915050565b6000602082019050818103600083015261348c8184612fc0565b905092915050565b600060208201905081810360008301526134ad81612ff9565b9050919050565b600060208201905081810360008301526134cd81613039565b9050919050565b600060208201905081810360008301526134ed81613079565b9050919050565b6000602082019050818103600083015261350d816130b9565b9050919050565b6000602082019050818103600083015261352d816130f9565b9050919050565b6000602082019050818103600083015261354d81613139565b9050919050565b6000602082019050818103600083015261356d81613179565b9050919050565b6000602082019050818103600083015261358d816131b9565b9050919050565b600060208201905081810360008301526135ad8161321f565b9050919050565b600060208201905081810360008301526135cd8161325f565b9050919050565b6000610140820190506135ea6000830185613323565b6135f8610100830184612ed2565b9392505050565b60006020820190506136146000830184613375565b92915050565b6000604051905081810181811067ffffffffffffffff8211171561363d57600080fd5b8060405250919050565b600067ffffffffffffffff82111561365e57600080fd5b602082029050919050565b600067ffffffffffffffff82111561368057600080fd5b602082029050919050565b600067ffffffffffffffff8211156136a257600080fd5b601f19601f8301169050602081019050919050565b600067ffffffffffffffff8211156136ce57600080fd5b601f19601f8301169050602081019050919050565b6000819050919050565b6000819050919050565b600060029050919050565b600060029050919050565b600081519050919050565b600081519050919050565b6000602082019050919050565b6000602082019050919050565b600081905092915050565b600081905092915050565b600082825260208201905092915050565b600082825260208201905092915050565b600061378082613793565b9050919050565b60008115159050919050565b600073ffffffffffffffffffffffffffffffffffffffff82169050919050565b6000819050919050565b60006137c882613811565b9050919050565b60008115159050919050565b6000819050919050565b60007fffffffff0000000000000000000000000000000000000000000000000000000082169050919050565b600073ffffffffffffffffffffffffffffffffffffffff82169050919050565b6000819050919050565b60006138468261384d565b9050919050565b60006138588261385f565b9050919050565b600061386a82613793565b9050919050565b82818337600083830152505050565b60005b8381101561389e578082015181840152602081019050613883565b838111156138ad576000848401525b50505050565b6000819050919050565b6000601f19601f830116905091905056fea265627a7a72305820ad43d1ebf19ca697de1d901e6e51d891f78e4ae29c07703176b92f4fb6bbc1846c6578706572696d656e74616cf50037",
  "source": "pragma solidity >=0.4.21 <0.6.0;\n\npragma experimental ABIEncoderV2;\n\nimport \"./ERC721Mintable.sol\";\nimport \"./SquareVerifier.sol\";\n\n// DONE define a contract call to the zokrates generated solidity contract <Verifier> or <renamedVerifier>\n// DONE define another contract named SolnSquareVerifier that inherits from your ERC721Mintable class\ncontract SolnSquareVerifier is ERC721MintableComplete {\n    constructor(address verifierAddress, string memory name, string memory symbol, string memory baseTokenURI) \n        public \n        ERC721MintableComplete(name, symbol, baseTokenURI) \n    {\n        verifier = SquareVerifier(verifierAddress);\n    }\n\n    // DONE define a solutions struct that can hold an index & an address\n    struct Solution {\n        uint256 index;\n        address solutionAddress;\n    }\n\n    SquareVerifier private verifier;\n\n    // DONE? define an array of the above struct\n    // Solution[] private solutions;\n\n    // DONE define a mapping to store unique solutions submitted\n    mapping(bytes32 => Solution) private solutions;\n    uint256 private solutionIndex;\n\n    // DONE Create an event to emit when a solution is added\n    event SolutionAdded (uint256 index, address indexed solutionAddress);\n    event TokenMinted(address to, uint256 tokenId);\n\n    modifier requireUniqueSolution(uint256[2] memory inputs) {\n        bytes32 key = keccak256(abi.encodePacked(inputs[0], inputs[1]));\n        require(solutions[key].solutionAddress == address(0), \"Solution already used\");\n        _;\n    }\n\n    modifier requireVerifiedSolution(SquareVerifier.Proof memory proof, uint256[2] memory inputs) {\n        require (verifier.verifyTx(proof, inputs), \"Solution verification fail\");\n        _;\n    }\n\n    // DONE Create a function to add the solutions to the array and emit the event\n    function addSolution(SquareVerifier.Proof memory proof, uint256[2] memory inputs, address to) \n        public \n        requireUniqueSolution(inputs)\n        requireVerifiedSolution(proof, inputs)\n    {\n        bytes32 key = keccak256(abi.encodePacked(inputs[0], inputs[1]));\n        Solution memory solution = Solution({\n            index: solutionIndex,\n            solutionAddress: to\n        });\n        solutions[key] = solution;\n        solutionIndex = solutionIndex + 1;\n\n        emit SolutionAdded(solution.index, solution.solutionAddress);\n    }\n\n    // DONE Create a function to mint new NFT only after the solution has been verified\n    //  - make sure the solution is unique (has not been used before)\n    //  - make sure you handle metadata as well as tokenSuplly\n    function mintToken (SquareVerifier.Proof memory proof, uint256[2] memory inputs, address to, uint256 tokenId) public {\n        addSolution(proof, inputs, to);\n        mint(to, tokenId);\n        emit TokenMinted(to, tokenId);\n    }\n\n\n}\n\n\n",
  "sourcePath": "/home/bamaung/real-estate/eth-contracts/contracts/SolnSquareVerifier.sol",
  "compiler": {
    "name": "solc",
    "version": "0.5.5+commit.47a71e8f.Emscripten.clang"
  },
  "schemaVersion": "3.4.14",
  "updatedAt": "2023-07-03T05:45:14.900Z",
  "networkType": "ethereum",
  "devdoc": {
    "methods": {
      "isApprovedForAll(address,address)": {
        "details": "Tells whether an operator is approved by a given owner",
        "params": {
          "operator": "operator address which you want to query the approval of",
          "owner": "owner address which you want to query the approval of"
        },
        "return": "bool whether the given operator is approved by the given owner"
      },
      "setApprovalForAll(address,bool)": {
        "details": "Sets or unsets the approval of a given operator An operator is allowed to transfer all tokens of the sender on their behalf",
        "params": {
          "approved": "representing the status of the approval to be set",
          "to": "operator address to set the approval"
        }
      },
      "supportsInterface(bytes4)": {
        "details": "implement supportsInterface(bytes4) using a lookup table"
      },
      "tokenByIndex(uint256)": {
        "details": "Gets the token ID at a given index of all the tokens in this contract Reverts if the index is greater or equal to the total number of tokens",
        "params": {
          "index": "uint256 representing the index to be accessed of the tokens list"
        },
        "return": "uint256 token ID at the given index of the tokens list"
      },
      "tokenOfOwnerByIndex(address,uint256)": {
        "details": "Gets the token ID at a given index of the tokens list of the requested owner",
        "params": {
          "index": "uint256 representing the index to be accessed of the requested tokens list",
          "owner": "address owning the tokens list to be accessed"
        },
        "return": "uint256 token ID at the given index of the tokens list owned by the requested address"
      },
      "totalSupply()": {
        "details": "Gets the total amount of tokens stored by the contract",
        "return": "uint256 representing the total amount of tokens"
      }
    }
  },
  "userdoc": {
    "methods": {}
  }
}